{
  "contractName": "Marketplace",
  "abi": [
    {
      "inputs": [],
      "stateMutability": "nonpayable",
      "type": "constructor"
    },
    {
      "anonymous": false,
      "inputs": [],
      "name": "MissionComplete",
      "type": "event"
    },
    {
      "inputs": [],
      "name": "Shipped",
      "outputs": [],
      "stateMutability": "nonpayable",
      "type": "function"
    },
    {
      "inputs": [],
      "name": "Delivered",
      "outputs": [],
      "stateMutability": "nonpayable",
      "type": "function"
    },
    {
      "inputs": [],
      "name": "getStatus",
      "outputs": [
        {
          "internalType": "enum Marketplace.ShippingStatus",
          "name": "",
          "type": "uint8"
        }
      ],
      "stateMutability": "view",
      "type": "function",
      "constant": true
    },
    {
      "inputs": [],
      "name": "Status",
      "outputs": [
        {
          "internalType": "enum Marketplace.ShippingStatus",
          "name": "",
          "type": "uint8"
        }
      ],
      "stateMutability": "payable",
      "type": "function",
      "payable": true
    }
  ],
  "bytecode": "0x608060405234801561001057600080fd5b5033600060016101000a81548173ffffffffffffffffffffffffffffffffffffffff021916908373ffffffffffffffffffffffffffffffffffffffff16021790555060008060006101000a81548160ff0219169083600281111561007757610076610081565b5b02179055506100b0565b7f4e487b7100000000000000000000000000000000000000000000000000000000600052602160045260246000fd5b610695806100bf6000396000f3fe60806040526004361061003f5760003560e01c806345f09ce9146100445780634e69d56014610062578063779822f71461008d5780637e59301e146100a4575b600080fd5b61004c6100bb565b60405161005991906104a3565b60405180910390f35b34801561006e57600080fd5b506100776101e4565b60405161008491906104a3565b60405180910390f35b34801561009957600080fd5b506100a2610288565b005b3480156100b057600080fd5b506100b9610370565b005b6000600160009054906101000a900473ffffffffffffffffffffffffffffffffffffffff1673ffffffffffffffffffffffffffffffffffffffff163373ffffffffffffffffffffffffffffffffffffffff161461014d576040517f08c379a000000000000000000000000000000000000000000000000000000000815260040161014490610541565b60405180910390fd5b60003411610190576040517f08c379a0000000000000000000000000000000000000000000000000000000008152600401610187906105ad565b60405180910390fd5b33600160006101000a81548173ffffffffffffffffffffffffffffffffffffffff021916908373ffffffffffffffffffffffffffffffffffffffff16021790555060008054906101000a900460ff16905090565b60008060019054906101000a900473ffffffffffffffffffffffffffffffffffffffff1673ffffffffffffffffffffffffffffffffffffffff163373ffffffffffffffffffffffffffffffffffffffff1614610275576040517f08c379a000000000000000000000000000000000000000000000000000000000815260040161026c9061063f565b60405180910390fd5b60008054906101000a900460ff16905090565b600060019054906101000a900473ffffffffffffffffffffffffffffffffffffffff1673ffffffffffffffffffffffffffffffffffffffff163373ffffffffffffffffffffffffffffffffffffffff1614610318576040517f08c379a000000000000000000000000000000000000000000000000000000000815260040161030f9061063f565b60405180910390fd5b60026000806101000a81548160ff0219169083600281111561033d5761033c61042c565b5b02179055507f36b3427b9db85e3915108cfe803971ea1ab2908152d7f72b55bf3a001c67a86560405160405180910390a1565b600060019054906101000a900473ffffffffffffffffffffffffffffffffffffffff1673ffffffffffffffffffffffffffffffffffffffff163373ffffffffffffffffffffffffffffffffffffffff1614610400576040517f08c379a00000000000000000000000000000000000000000000000000000000081526004016103f79061063f565b60405180910390fd5b60016000806101000a81548160ff021916908360028111156104255761042461042c565b5b0217905550565b7f4e487b7100000000000000000000000000000000000000000000000000000000600052602160045260246000fd5b6003811061046c5761046b61042c565b5b50565b600081905061047d8261045b565b919050565b600061048d8261046f565b9050919050565b61049d81610482565b82525050565b60006020820190506104b86000830184610494565b92915050565b600082825260208201905092915050565b7f4f6e6c792074686520637573746f6d65722063616e20706572666f726d20746860008201527f697320616374696f6e0000000000000000000000000000000000000000000000602082015250565b600061052b6029836104be565b9150610536826104cf565b604082019050919050565b6000602082019050818103600083015261055a8161051e565b9050919050565b7f5061796d656e7420726571756972656400000000000000000000000000000000600082015250565b60006105976010836104be565b91506105a282610561565b602082019050919050565b600060208201905081810360008301526105c68161058a565b9050919050565b7f4f6e6c7920746865206f776e65722063616e20706572666f726d20746869732060008201527f616374696f6e0000000000000000000000000000000000000000000000000000602082015250565b60006106296026836104be565b9150610634826105cd565b604082019050919050565b600060208201905081810360008301526106588161061c565b905091905056fea264697066735822122077489ee8eea19898d8d2a72f0fe972acb50b70abd6212affcda3b014362bcfc064736f6c634300080d0033",
  "immutableReferences": {},
  "source": "pragma solidity ^0.8.0;\r\n\r\ncontract Marketplace {\r\n\r\n    enum ShippingStatus { Pending, Shipped, Delivered }\r\n    ShippingStatus private status;\r\n\r\n    event MissionComplete();\r\n\r\n    address private owner;\r\n    address private customer;\r\n\r\n    constructor() {\r\n        owner = msg.sender;\r\n        status = ShippingStatus.Pending;\r\n    }\r\n\r\n    modifier ownerOnly {\r\n        require(msg.sender == owner, \"Only the owner can perform this action\");\r\n        _;\r\n    }\r\n\r\n    modifier customerOnly {\r\n        require(msg.sender == customer, \"Only the customer can perform this action\");\r\n        _;\r\n    }\r\n\r\n    function Shipped() public ownerOnly {\r\n        status = ShippingStatus.Shipped;\r\n    }\r\n\r\n    function Delivered() public ownerOnly {\r\n        status = ShippingStatus.Delivered;\r\n        emit MissionComplete();\r\n    }\r\n\r\n    function getStatus() public view ownerOnly returns (ShippingStatus) {\r\n        return status;\r\n    }\r\n\r\n    function Status() public payable customerOnly returns (ShippingStatus) {\r\n        require(msg.value > 0, \"Payment required\");\r\n        customer = msg.sender;\r\n        return status;\r\n    }\r\n}\r\n",
  "sourcePath": "C:\\Users\\Baptiste\\PycharmProjects\\pythonProject1\\contracts\\Token.sol",
  "compiler": {
    "name": "solc",
    "version": "0.8.13+commit.abaa5c0e.Emscripten.clang"
  },
  "schemaVersion": "3.4.13",
  "updatedAt": "2023-03-09T10:07:46.293Z",
  "networkType": "ethereum",
  "devdoc": {
    "kind": "dev",
    "methods": {},
    "version": 1
  },
  "userdoc": {
    "kind": "user",
    "methods": {},
    "version": 1
  }
}